:020000040800F2
:1000000008100020A9010008F9020008F102000808
:10001000F502000815020008A9060008000000000B
:10002000000000000000000000000000B104000813
:100030001902000800000000890300089D0500085F
:10004000C3010008C3010008C3010008C301000880
:10005000C3010008C3010008C3010008C301000870
:10006000C3010008C3010008C3010008C301000860
:10007000C3010008C3010008C3010008C301000850
:10008000C3010008C3010008C3010008000000000C
:10009000000000000000000000000000C301000894
:1000A000C3010008C3010008C3010008C301000820
:1000B000C3010008C3010008C3010008C301000810
:1000C000C3010008C3010008C3010008AD03000814
:1000D000C3010008C3010008C301000800000000BC
:1000E000C3010008C3010008C301000800000000AC
:1000F000000000000000000000000000C301000834
:1001000000000000C3010008C3010008C30100088B
:1001100000000000000000000000000000000000DF
:10012000C3010008C3010008C3010008C30100089F
:10013000C3010008000000000000000000000000F3
:10014000000000000000000000000000C3010008E3
:10015000C3010008C3010008C3010008C30100086F
:10016000C3010008C30100080000000000000000F7
:10017000000000000000000000000000000000007F
:1001800000000000C30100080000000000000000A3
:10019000C3010008DFF80CD000F02AF8004800473F
:1001A000F10700080810002006488047064800476D
:1001B000FEE7FEE7FEE7FEE7FEE7FEE7FEE7FEE717
:1001C000FEE7FEE7A105000895010008D2B201E0B4
:1001D00000F8012B491EFBD270470022F6E710B54C
:1001E00013460A4604461946FFF7F0FF204610BDA5
:1001F000064C074D06E0E06840F0010394E8070074
:1002000098471034AC42F6D3FFF7C8FF2C0800081B
:100210004C08000800BFFEE77047F0B50A46002111
:100220000023002400BF3DE0012505FA01F3156815
:1002300005EA03049C4234D105684F000326BE4002
:10024000B543056015794E00B54006683543056035
:100250001579012D02D01579022D16D185684F0030
:100260000326BE40B543856055794E00B54086688B
:1002700035438560456801268E40B5434560456835
:1002800096798E40B6B235434560C5684F00032667
:10029000BE40B543C560D5794E00B540C66835430C
:1002A000C560491C1029BFD3F0BDF0B50023002460
:1002B0004D07ED0E02FA05F3CE1000F1200555F8BA
:1002C00026504E07F70E0F26BE40B543CF1000F163
:1002D000200646F82750CE1000F1200555F826508C
:1002E00045EA0304CE1000F1200545F82640F0BD94
:1002F00000BFFEE700BFFEE77047000070B50021B9
:1003000000230F22C4781CB3174C246804F4E06463
:10031000C4F5E064C4F30721C1F10404E3B20A4167
:1003200044789C40E1B28478144021430C07210EAC
:100330000E4C05786155047804F01F050124AC408B
:1003400005786D11AD0005F1E025C5F8004109E023
:10035000047804F01F050124AC40054D06787611A1
:1003600045F8264070BD00000CED00E000E400E020
:1003700080E100E002490143024A11607047000039
:100380000000FA050CED00E07047000029B1064AB4
:1003900012680243044B1A6004E0034A1268824365
:1003A000014B1A60704700003038024010B55521EB
:1003B000094800F035F801280CD10748008840F4BE
:1003C0008070054908805521034800F01FF803A0FC
:1003D00000F06CF910BD000000300140535049316D
:1003E000204D4F4446205445535420504153530D03
:1003F0000A00000021B1028842F04002028004E0BD
:1004000002884FF6BF731A400280704710B5002271
:1004100001F00F040123A3409AB2D343038110BD1E
:10042000F0B50246002000240023002501F00F074C
:100430000126BE40B4B20B1101269E40B3B296888D
:1004400006EA03051689264016B10DB1012000E029
:100450000020F0BD30B5002400230C110125A5407B
:10046000ABB21AB185881D43858002E085889D4323
:10047000858030BD10B50022028802F441520B88FD
:100480004C8823438C882343CC8823430C89234303
:100490004C8923438C892343CC8923431A4302800C
:1004A000838B4FF2FF74234083830B8A038210BD3A
:1004B000704700000CB500200190009033480068A0
:1004C00040F480303149086000BF3048006800F4D3
:1004D000003000900198401C0190009818B90198D4
:1004E000B0F5A04FF1D12948006800F4003010B1F8
:1004F0000120009001E0002000900098012844D1E4
:1005000022484030006840F0805020494031086067
:100510001F48006840F440401D4908601B480830EF
:1005200000681A49083108600846006808600846F3
:10053000006840F4805008601648091F0860081FD2
:10054000006840F08070091F086000BF0F48006815
:1005500000F000700028F9D040F202700E490860E7
:100560000A480830006820F0030008490831086094
:100570000846006840F00200086000BF03480830E9
:10058000006800F00C000828F8D10CBD00380240CB
:100590000070004008544107003C024070470000D2
:1005A00010B51548006840F47000134908601348FE
:1005B000006840F001001149086000200F4908312F
:1005C00008600E4800680E4908400C4908600D4854
:1005D000091D0860081F006820F48020091F0860BA
:1005E000002006490C310860FFF764FF4FF00060FF
:1005F00001498039086010BD88ED00E000380240F4
:10060000FFFFF6FE1030002400BF0549097801F015
:1006100080010029F9D0C0F30801014A51607047F8
:10062000001001401D48006840F001001B490860AF
:100630001A481430006840F010001849143108605E
:100640001748406A40F07000154948620846006843
:1006500040F4002008600846406820F4002048600C
:100660000846806840F4002088600846C06840F46E
:100670008020C8600B48806840F2D92108430949AE
:1006800088600846C06842F20C0108430549C8600A
:100690000846C06940F00100C86170473038024028
:1006A000000002400010014000BFFEE7014A02497D
:1006B00000F013B8E10700080000002002E008C8BD
:1006C000121F08C1002AFAD170477047002001E0CC
:1006D00001C1121F002AFBD170472DE9F0411646D7
:1006E0000F460446002503E03946B047641C6D1CE4
:1006F00020780028F8D12846BDE8F08100B589B0FF
:100700003448006840F4805032490860081F00688F
:1007100040F44040091F086001210846FFF736FEFB
:1007200000200690079002208DF81C00F020069013
:1007300006A92948FFF771FD052211462648FFF753
:10074000B4FD052206212448FFF7AFFD052207214D
:100750002148FFF7AAFD142101A8FFF73EFD08205C
:10076000ADF810000020ADF80C00ADF80A00ADF8AF
:100770001400ADF80800ADF80400ADF812004FF415
:100780008270ADF806004FF40070ADF80E0001A9BC
:100790001248FFF76FFE01211048FFF72BFE0122E0
:1007A00050210E48FFF756FE4FF4A060FFF7E2FD20
:1007B00023208DF8200001208DF8210003208DF8E2
:1007C000220001208DF8230008A8FFF797FD09B04B
:1007D00000BD0000443802400000024000300140EB
:1007E00010B503460C46D8B2FFF70EFF10BD00004F
:1007F000FFF718FF06A0FFF759FFFFF77FFF0A4832
:10080000008820F480700849088000BFFEE70000DF
:1008100053504931204D4F444620544553542053A2
:10082000544152540D0A0000003001404C080008A9
:100830000000002004000000BC060008500800086A
:100840000400002004100000CC0600080000000096
:040000050800019559
:00000001FF
