:020000040800F2
:1000000010100020A9010008770300086F03000802
:1000100073030008930200088D060008000000002A
:10002000000000000000000000000000790400084B
:100030009702000800000000F103000875050008A1
:10004000C3010008C3010008C3010008C301000880
:10005000C3010008C3010008C3010008C301000870
:10006000C3010008C3010008C3010008C301000860
:10007000C3010008C3010008C3010008C301000850
:10008000C3010008C3010008C3010008000000000C
:10009000000000000000000000000000C301000894
:1000A000C3010008C3010008C3010008C301000820
:1000B000C3010008C3010008C3010008C301000810
:1000C000C3010008C3010008C3010008C301000800
:1000D000F5030008C3010008C30100080000000088
:1000E000C3010008C3010008C301000800000000AC
:1000F000000000000000000000000000C301000834
:1001000000000000C3010008C3010008C30100088B
:1001100000000000000000000000000000000000DF
:10012000C3010008C3010008C3010008C30100089F
:10013000C3010008000000000000000000000000F3
:10014000000000000000000000000000C3010008E3
:10015000C3010008C3010008C3010008C30100086F
:10016000C3010008C30100080000000000000000F7
:10017000000000000000000000000000000000007F
:1001800000000000C30100080000000000000000A3
:10019000C3010008DFF80CD000F04AF8004800471F
:1001A000410B000810100020064880470648004711
:1001B000FEE7FEE7FEE7FEE7FEE7FEE7FEE7FEE717
:1001C000FEE7FEE779050008950100082DE9F05FDC
:1001D0000546002092469B468846064681464024B6
:1001E0001BE0284641464746224600F042F8534667
:1001F0005A46C01A914110D311461846224600F0C3
:1002000029F82D1A67EB01084F46224601200021EC
:1002100000F020F817EB00094E41201EA4F1010464
:10022000DFDC484631462A464346BDE8F09F0000E1
:10023000064C074D06E0E06840F0010394E8070033
:1002400098471034AC42F6D3FFF7A8FF8C0C000897
:10025000AC0C0008202A04DB203A00FA02F100204E
:1002600070479140C2F1200320FA03F319439040F4
:100270007047202A04DB203A21FA02F0002170475F
:1002800021FA02F3D040C2F12002914008431946FE
:10029000704700BFFEE77047F0B50A460021002313
:1002A000002400BF3DE0012505FA01F3156805EAC9
:1002B00003049C4234D105684F000326BE40B54379
:1002C000056015794E00B54006683543056015791F
:1002D000012D02D01579022D16D185684F00032615
:1002E000BE40B543856055794E00B54086683543BC
:1002F0008560456801268E40B5434560456896791E
:100300008E40B6B235434560C5684F000326BE40F7
:10031000B543C560D5794E00B540C6683543C56064
:10032000491C1029BFD3F0BDF0B5002300244D07B0
:10033000ED0E02FA05F3CE1000F1200555F8265017
:100340004E07F70E0F26BE40B543CF1000F1200632
:1003500046F82750CE1000F1200555F8265045EA02
:100360000304CE1000F1200545F82640F0BD00BF83
:10037000FEE700BFFEE7704770B5002100230F22A3
:10038000C4781CB3174C246804F4E064C4F5E0643A
:10039000C4F30721C1F10404E3B20A4144789C404C
:1003A000E1B28478144021430C07210E0E4C0578ED
:1003B0006155047804F01F050124AC4005786D11E7
:1003C000AD0005F1E025C5F8004109E0047804F02E
:1003D0001F050124AC40054D0678761145F82640EE
:1003E00070BD00000CED00E000E400E080E100E002
:1003F0007047000010B51748008800F0080038B3B7
:100400001448001F008820F008001249091F0880C6
:1004100011480068808820F020000F490968888012
:100420000D480068808820F040000B4909688880EA
:1004300009480068808B20F4806007490968888338
:1004400006A000F025F909A000F022F900F0C8F894
:1004500010BD000008380040000000205544522024
:1004600068617070656E0D0A000000007465737439
:1004700020706173730D0A00704700000CB50020F6
:10048000019000903648006840F48030344908609C
:1004900000BF3348006800F4003000900198401C11
:1004A0000190009818B90198B0F5A04FF1D12C48EF
:1004B000006800F4003010B10120009001E000203D
:1004C00000900098012849D125484030006840F04C
:1004D00080502349403108602248006840F4404081
:1004E000204908601E48083000681D49083108602E
:1004F0000846006808600846006840F480500860BC
:10050000194817498431086018481549091D0860C1
:10051000081F006840F08070091F086000BF104885
:10052000006800F000700028F9D040F20270104915
:1005300008600B480830006820F0030008490831C3
:1005400008600846006840F00200086000BF0448E8
:100550000830006800F00C000828F8D10CBD00003D
:10056000003802400070004000300020085441076D
:10057000003C02407047000010B51548006840F488
:100580007000134908601348006840F001001149E9
:10059000086000200F49083108600E4800680E49C5
:1005A00008400C4908600D48091D0860081F0068D4
:1005B00020F48020091F0860002006490C310860E3
:1005C000FFF75CFF4FF0006001498039086010BD03
:1005D00088ED00E000380240FFFFF6FE10300024F6
:1005E000042000F003F800BFFEE7000000BF05494B
:1005F000097801F080010029F9D0C0F30801014A0F
:1006000051607047001001401D48006840F0010033
:100610001B4908601A481430006840F0100018495F
:10062000143108601748406A40F07000154948626C
:100630000846006840F4002008600846406820F43E
:10064000002048600846806840F400208860084622
:10065000C06840F48020C8600B48806840F2D9210F
:100660000843094988600846C06842F20C01084303
:100670000549C8600846C06940F00100C86170477C
:1006800030380240000002400010014000BFFEE789
:100690000FB4054B10B503A9044A029800F018F8EE
:1006A00010BC5DF814FB0000330B00080C000020A8
:1006B00002E008C8121F08C1002AFAD1704770472B
:1006C000002001E001C1121F002AFBD17047000089
:1006D0002DE9FF4F8DB00F460546002606E0252880
:1006E0000BD0DDE90F1290476D1C761C287800288E
:1006F000F5D111B03046BDE8F08F0024A246A146E6
:100700000122EC4900E0044315F8013F203B02FAC6
:1007100003F00842F7D128782A2810D06FF02F0272
:100720002878A0F13001092914D80AEB8A0102EBDC
:10073000410144F0020400EB010A6D1CF0E701CF17
:100740005FEA000A03D544F40054CAF1000A44F0F9
:1007500002046D1C28782E2817D115F8010F44F0DB
:1007600004042A280ED06FF02F022878A0F130015F
:1007700009290AD809EB890102EB410100EB0109C3
:100780006D1CF2E757F8049B6D1C28786C280FD07D
:1007900006DC4C2817D068280DD06A2814D104E054
:1007A000742810D07A280FD10DE044F400140AE028
:1007B00044F4801401E044F440146978814202D189
:1007C00004F580146D1C6D1C2A786E2A1FD00CDC79
:1007D000632A31D004DC002A8BD0582A11D1A3E03F
:1007E000642A68D0692A0CD165E0732A2ED004DC13
:1007F0006F2A73D0702A04D19BE0752A6FD0782AB3
:100800006ED01046DDE90F129047761C50E1C4F31C
:100810000250022806D0032809D0042801CF09D0AD
:10082000066045E101CFF117C0E9006140E101CF69
:1008300006803DE106703BE117F8040B8DF80000DF
:1008400000208DF80100EB46012003E057F804BBBF
:100850004FF0FF3061074FF0000102D40DE008F1C6
:100860000101884649450FDA8045F8DB1BF808107E
:100870000029F4D108E008F1010188468142FADB41
:100880001BF808100029F6D1DDE90F23AAEB0800B8
:100890008146214600F036F9304400EB080604E0BA
:1008A000DDE90F121BF8010B9047B8F10108F7D2F0
:1008B00021464846F7E00A21C4F302534FF0000BEB
:1008C0000891022B04D001CFC117032B09D00AE0F5
:1008D000FF1D27F00707F7E8020108E032E01FE0FC
:1008E00020E000B2C117042B01D140B2C117031E92
:1008F00071F1000307DA4FF0000CD0EB0C006CEB49
:1009000001012D2302E0230504D52B238DF824308B
:10091000012303E0E30701D02023F7E7984658E0DE
:100920000A2110E010210EE010204FF0000B08907B
:100930000CE010214FF0000B44F004044FF00809C4
:10094000089103E008214FF0000B0891C4F3025313
:10095000022B04D001CF0021032B06D006E0FF1D9F
:1009600027F00707F7E8020103E080B2042B00D16B
:10097000C0B24FF0000823072BD5702A07D0DDF84E
:1009800020C08CF0100C5CEA0B0C05D00EE040236C
:100990008DF82430012308E050EA010306D030230B
:1009A0008DF824308DF8252002239846DDF820C0EC
:1009B0008CF0080C5CEA0B0C0BD150EA010301D15E
:1009C000630706D530238DF824304FF00108A9F1D4
:1009D0000109582A04D038A20B9208AA0A920BE007
:1009E0003AA2F9E75B46089AFFF7F0FB0B9B9B5C8A
:1009F0000A9A521E0A92137050EA0102F2D10A9822
:100A0000ADEB000000F1200B600702D524F4803428
:100A100001E04FF00109D94502DDA9EB0B0000E030
:100A2000002000EB0B0141440890AAEB010AE0030F
:100A300006D4DDE90F232146504600F063F8064452
:100A40004FF0000908E009A911F80900DDE90F12CB
:100A5000904709F10109761CC145F4DBE0030CD590
:100A6000DDE90F232146504600F04CF8064404E02F
:100A7000DDE90F1230209047761C0899481E089037
:100A80000029F5DC08E00A980A990078491C0A91C7
:100A9000DDE90F129047761CBBF10001ABF1010BB1
:100AA000F1DC21465046DDE90F2300F019F8064439
:100AB0006D1C1BE6092801003031323334353637DE
:100AC000383961626364656600000000303132339A
:100AD000343536373839414243444546000000003A
:100AE0002DE9F041044600251E461746880404D42B
:100AF00005E039462020B0476D1C641EF9D5284614
:100B0000BDE8F0812DE9F041044600251E469046DF
:100B1000C80301D5302700E02027880404D505E06C
:100B200041463846B0476D1C641EF9D52846BDE8DD
:100B3000F08110B503460C46D8B2FFF757FD10BD43
:100B40000EB5FFF761FD48A0FFF7A2FD4A48006817
:100B500040F007004849086047483038006840F0D6
:100B60008060454930390860052209214348FFF774
:100B7000DBFB05220A214148FFF7D6FB102000903D
:100B800002208DF8040000208DF8060002208DF868
:100B9000070069463A48FFF77FFB4FF4C0600090BA
:100BA00069463648FFF778FB0820009069463548CB
:100BB000FFF772FB30481030006840F480402E4947
:100BC0001031086030480068808B20F480602E4926
:100BD0000968888300202C49096888832A480068AE
:100BE000808B40F4006028490968888300202649EA
:100BF0000968088424480068008C40F027002249D6
:100C00000968088420480068008C40F480701E4900
:100C1000096808841C480068808B40F480601A4989
:100C20000968888318480068808840F040001649A9
:100C30000968888014480068808840F020001249C4
:100C40000968888024208DF8080000208DF80900AC
:100C500002208DF80A0001208DF80B0002A8FFF792
:100C60008BFB00BFFEE70000693273205544522021
:100C7000746573740D0A00003038024000040240AD
:100C8000000002400008024000000020AC0C0008F8
:100C90000000002010000000B0060008BC0C000896
:100CA0001000002000100000C006000800380040BE
:0C0CB000003C00403412785600000000A8
:040000050800019559
:00000001FF
