:020000040800F2
:1000000008100020A90100089B03000893030008C2
:1000100097030008B7020008690700080000000005
:100020000000000000000000000000007105000852
:10003000BB02000800000000290400085D0600085B
:10004000C3010008C3010008C3010008C301000880
:10005000C3010008C3010008C3010008C301000870
:10006000C3010008C3010008C3010008C301000860
:10007000C3010008C3010008C3010008C301000850
:10008000C3010008C3010008C3010008000000000C
:10009000000000000000000000000000C301000894
:1000A000C3010008C3010008C3010008C301000820
:1000B000C3010008C3010008C3010008C301000810
:1000C000C3010008C3010008C30100086D04000853
:1000D000C3010008C3010008C301000800000000BC
:1000E000C3010008C3010008C301000800000000AC
:1000F000000000000000000000000000C301000834
:1001000000000000C3010008C3010008C30100088B
:1001100000000000000000000000000000000000DF
:10012000C3010008C3010008C3010008C30100089F
:10013000C3010008000000000000000000000000F3
:10014000000000000000000000000000C3010008E3
:10015000C3010008C3010008C3010008C30100086F
:10016000C3010008C30100080000000000000000F7
:10017000000000000000000000000000000000007F
:1001800000000000C30100080000000000000000A3
:10019000C3010008DFF80CD000F05CF8004800470D
:1001A000050D000808100020064880470648004753
:1001B000FEE7FEE7FEE7FEE7FEE7FEE7FEE7FEE717
:1001C000FEE7FEE76106000895010008D2B201E0F3
:1001D00000F8012B491EFBD270470022F6E710B54C
:1001E00013460A4604461946FFF7F0FF204610BDA5
:1001F0002DE9F05F0546002092469B46884606465C
:10020000814640241BE0284641464746224600F0EE
:1002100042F853465A46C01A914110D31146184627
:10022000224600F029F82D1A67EB01084F462246B6
:100230000120002100F020F817EB00094E41201E9C
:10024000A4F10104DFDC484631462A464346BDE8B6
:10025000F09F0000064C074D06E0E06840F0010307
:1002600094E8070098471034AC42F6D3FFF796FFA6
:10027000300D0008500D0008202A04DB203A00FA57
:1002800002F1002070479140C2F1200320FA03F3ED
:10029000194390407047202A04DB203A21FA02F0EB
:1002A0000021704721FA02F3D040C2F120029140B0
:1002B00008431946704700BFFEE77047F0B50A468D
:1002C00000210023002400BF3DE0012505FA01F3D1
:1002D000156805EA03049C4234D105684F000326E3
:1002E000BE40B543056015794E00B54006683543FC
:1002F00005601579012D02D01579022D16D185687A
:100300004F000326BE40B543856055794E00B54089
:10031000866835438560456801268E40B543456053
:10032000456896798E40B6B235434560C5684F0042
:100330000326BE40B543C560D5794E00B540C668BA
:100340003543C560491C1029BFD3F0BDF0B500236B
:1003500000244D07ED0E02FA05F3CE1000F1200542
:1003600055F826504E07F70E0F26BE40B543CF1066
:1003700000F1200646F82750CE1000F1200555F870
:10038000265045EA0304CE1000F1200545F826402A
:10039000F0BD00BFFEE700BFFEE7704770B500216B
:1003A00000230F22C4781CB3174C246804F4E064C3
:1003B000C4F5E064C4F30721C1F10404E3B20A41C7
:1003C00044789C40E1B28478144021430C07210E0C
:1003D0000E4C05786155047804F01F050124AC40EB
:1003E00005786D11AD0005F1E025C5F8004109E083
:1003F000047804F01F050124AC40054D0678761101
:1004000045F8264070BD00000CED00E000E400E07F
:1004100080E100E002490143024A11607047000098
:100420000000FA050CED00E07047000029B1064A13
:1004300012680243044B1A6004E0034A12688243C4
:10044000014B1A60704700003038024029B1064A5B
:1004500012680243044B1A6004E0034A12688243A4
:10046000014B1A60704700004438024010B560210B
:100470000A4800F035F801280ED10948007838B94B
:1004800008A000F073F906480078401C0449087081
:100490006021024800F01AF810BD00000030014051
:1004A0000000002052584E452050415353200D0A61
:1004B0000000000021B1028842F04002028004E006
:1004C00002884FF6BF731A400280704710B50022B1
:1004D00001F00F040123A3409AB2D343038110BD5E
:1004E000F0B50246002000240023002501F00F078C
:1004F0000126BE40B4B20B1101269E40B3B29688CD
:1005000006EA03051689264016B10DB1012000E068
:100510000020F0BD30B5002400230C110125A540BA
:10052000ABB21AB185881D43858002E085889D4362
:10053000858030BD10B50022028802F441520B883C
:100540004C8823438C882343CC8823430C89234342
:100550004C8923438C892343CC8923431A4302804B
:10056000838B4FF2FF74234083830B8A038210BD79
:10057000704700000CB500200190009033480068DF
:1005800040F480303149086000BF3048006800F412
:10059000003000900198401C0190009818B9019813
:1005A000B0F5A04FF1D12948006800F4003010B137
:1005B0000120009001E0002000900098012844D123
:1005C00022484030006840F08050204940310860A7
:1005D0001F48006840F440401D4908601B4808302F
:1005E00000681A4908310860084600680860084633
:1005F000006840F4805008601648091F0860081F12
:10060000006840F08070091F086000BF0F48006854
:1006100000F000700028F9D040F202700E49086026
:100620000A480830006820F00300084908310860D3
:100630000846006840F00200086000BF0348083028
:10064000006800F00C000828F8D10CBD003802400A
:100650000070004008544107003C02407047000011
:1006600010B51548006840F470001349086013483D
:10067000006840F001001149086000200F4908316E
:1006800008600E4800680E4908400C4908600D4893
:10069000091D0860081F006820F48020091F0860F9
:1006A000002006490C310860FFF764FF4FF000603E
:1006B00001498039086010BD88ED00E00038024033
:1006C000FFFFF6FE1030002400BF0549097801F055
:1006D00080010029F9D0C0F30801014A5160704738
:1006E000001001401D48006840F001001B490860EF
:1006F0001A481430006840F010001849143108609E
:100700001748406A40F07000154948620846006882
:1007100040F4002008600846406820F4002048604B
:100720000846806840F4002088600846C06840F4AD
:100730008020C8600B48806840F2D92108430949ED
:1007400088600846C06842F20C0108430549C86049
:100750000846C06940F00100C86170473038024067
:10076000000002400010014000BFFEE70FB4054B3F
:1007700010B503A9044A029800F018F810BC5DF8FF
:1007800014FB0000F50C00080400002002E008C87B
:10079000121F08C1002AFAD170477047002001E0FB
:1007A00001C1121F002AFBD1704700002DE9FF4F45
:1007B0008DB00F460546002606E025280BD0DDE962
:1007C0000F1290476D1C761C28780028F5D111B0C7
:1007D0003046BDE8F08F0024A246A1460122EC4934
:1007E00000E0044315F8013F203B02FA03F0084201
:1007F000F7D128782A2810D06FF02F022878A0F19E
:100800003001092914D80AEB8A0102EB410144F0B6
:10081000020400EB010A6D1CF0E701CF5FEA000A59
:1008200003D544F40054CAF1000A44F002046D1CDC
:1008300028782E2817D115F8010F44F004042A282F
:100840000ED06FF02F022878A0F1300109290AD8C4
:1008500009EB890102EB410100EB01096D1CF2E794
:1008600057F8049B6D1C28786C280FD006DC4C28A8
:1008700017D068280DD06A2814D104E0742810D04D
:100880007A280FD10DE044F400140AE044F48014F7
:1008900001E044F440146978814202D104F58014E7
:1008A0006D1C6D1C2A786E2A1FD00CDC632A31D097
:1008B00004DC002A8BD0582A11D1A3E0642A68D026
:1008C000692A0CD165E0732A2ED004DC6F2A73D01C
:1008D000702A04D19BE0752A6FD0782A6ED010461A
:1008E000DDE90F129047761C50E1C4F30250022854
:1008F00006D0032809D0042801CF09D0066045E1BD
:1009000001CFF117C0E9006140E101CF06803DE170
:1009100006703BE117F8040B8DF8000000208DF8FD
:100920000100EB46012003E057F804BB4FF0FF3015
:1009300061074FF0000102D40DE008F10101884683
:1009400049450FDA8045F8DB1BF808100029F4D17F
:1009500008E008F1010188468142FADB1BF8081023
:100960000029F6D1DDE90F23AAEB080081462146D4
:1009700000F036F9304400EB080604E0DDE90F1220
:100980001BF8010B9047B8F10108F7D22146484601
:10099000F7E00A21C4F302534FF0000B0891022B39
:1009A00004D001CFC117032B09D00AE0FF1D27F0A7
:1009B0000707F7E8020108E032E01FE020E000B29C
:1009C000C117042B01D140B2C117031E71F10003FE
:1009D00007DA4FF0000CD0EB0C006CEB01012D237B
:1009E00002E0230504D52B238DF82430012303E0F6
:1009F000E30701D02023F7E7984658E00A2110E0EA
:100A000010210EE010204FF0000B08900CE0102198
:100A10004FF0000B44F004044FF00809089103E084
:100A200008214FF0000B0891C4F30253022B04D0AD
:100A300001CF0021032B06D006E0FF1D27F007079A
:100A4000F7E8020103E080B2042B00D1C0B24FF0FE
:100A5000000823072BD5702A07D0DDF820C08CF0C2
:100A6000100C5CEA0B0C05D00EE040238DF824300E
:100A7000012308E050EA010306D030238DF824302A
:100A80008DF8252002239846DDF820C08CF0080C54
:100A90005CEA0B0C0BD150EA010301D1630706D5C8
:100AA00030238DF824304FF00108A9F10109582AAC
:100AB00004D038A20B9208AA0A920BE03AA2F9E7F6
:100AC0005B46089AFFF794FB0B9B9B5C0A9A521EAD
:100AD0000A92137050EA0102F2D10A98ADEB0000BD
:100AE00000F1200B600702D524F4803401E04FF0C0
:100AF0000109D94502DDA9EB0B0000E0002000EB65
:100B00000B0141440890AAEB010AE00306D4DDE999
:100B10000F232146504600F063F806444FF00009C9
:100B200008E009A911F80900DDE90F12904709F161
:100B30000109761CC145F4DBE0030CD5DDE90F2388
:100B40002146504600F04CF8064404E0DDE90F125F
:100B500030209047761C0899481E08900029F5DC43
:100B600008E00A980A990078491C0A91DDE90F12F9
:100B70009047761CBBF10001ABF1010BF1DC214683
:100B80005046DDE90F2300F019F806446D1C1BE602
:100B90000928010030313233343536373839616253
:100BA0006364656600000000303132333435363717
:100BB0003839414243444546000000002DE9F041E8
:100BC000044600251E461746880404D405E039462D
:100BD0002020B0476D1C641EF9D52846BDE8F08181
:100BE0002DE9F041044600251E469046C80301D574
:100BF000302700E02027880404D505E04146384628
:100C0000B0476D1C641EF9D52846BDE8F081000090
:100C100000B589B001210803FFF718FC012108463F
:100C2000FFF704FC01210220FFF700FC00200690E2
:100C3000079001208DF81C001020069006A92B4873
:100C4000FFF73CFB02208DF81C00E020069006A96F
:100C50002648FFF733FB052211462448FFF776FBB1
:100C6000052206212148FFF771FB052207211F48B5
:100C7000FFF76CFB142101A8FFF7AFFA0820ADF8CD
:100C800010000020ADF80C00ADF80A00ADF814001B
:100C9000ADF80800ADF80400ADF81200ADF806009C
:100CA0004FF40070ADF80E0001A91148FFF742FCA7
:100CB00001210F48FFF7FEFB012260210C48FFF7DE
:100CC00029FC4FF4A060FFF7A5FB23208DF820003E
:100CD00001208DF8210003208DF8220001208DF8DD
:100CE000230008A8FFF75AFB09B000BD000002402E
:100CF0000030014010B503460C46D8B2FFF7E4FCC3
:100D000010BD0000FFF7EEFC03A0FFF72FFDFFF77B
:100D10007FFF00BFFEE7000063686970323A6865D4
:100D20006C6C6F20776F726C64200D0A00000000FD
:100D3000500D000800000020080000008C0700088B
:100D4000580D000808000020001000009C07000853
:080D500000000000000000009B
:040000050800019559
:00000001FF
