:020000040800F2
:1000000020100020A90100083D0500083505000862
:100010003905000893020008690700080000000085
:100020000000000000000000000000006105000862
:100030005D040008000000003F0500085D060008A0
:10004000C3010008C3010008C3010008C301000880
:10005000C3010008C3010008C3010008C301000870
:10006000C3010008C3010008C3010008C301000860
:10007000C3010008C3010008C3010008C301000850
:10008000C3010008C3010008C3010008000000000C
:10009000000000000000000000000000C301000894
:1000A000C3010008C3010008C3010008C301000820
:1000B000C3010008C3010008C3010008C301000810
:1000C000C3010008C3010008C3010008C301000800
:1000D000C3010008C3010008C301000800000000BC
:1000E000C3010008C3010008C301000800000000AC
:1000F000000000000000000000000000C301000834
:1001000000000000C3010008C3010008C30100088B
:1001100000000000000000000000000000000000DF
:10012000C3010008C3010008C3010008C30100089F
:10013000C3010008000000000000000000000000F3
:10014000000000000000000000000000C3010008E3
:10015000C3010008C3010008C3010008C30100086F
:10016000C3010008C30100080000000000000000F7
:10017000000000000000000000000000000000007F
:1001800000000000C30100080000000000000000A3
:10019000C3010008DFF80CD000F04AF8004800471F
:1001A0008D0C0008201000200648804706480047B4
:1001B000FEE7FEE7FEE7FEE7FEE7FEE7FEE7FEE717
:1001C000FEE7FEE761060008950100082DE9F05FF3
:1001D0000546002092469B468846064681464024B6
:1001E0001BE0284641464746224600F042F8534667
:1001F0005A46C01A914110D311461846224600F0C3
:1002000029F82D1A67EB01084F46224601200021EC
:1002100000F020F817EB00094E41201EA4F1010464
:10022000DFDC484631462A464346BDE8F09F0000E1
:10023000064C074D06E0E06840F0010394E8070033
:1002400098471034AC42F6D3FFF7A8FFB80D00086A
:10025000D80D0008202A04DB203A00FA02F1002021
:1002600070479140C2F1200320FA03F319439040F4
:100270007047202A04DB203A21FA02F0002170475F
:1002800021FA02F3D040C2F12002914008431946FE
:10029000704700BFFEE721B1026842F00102026030
:1002A00003E0026822F0010202607047016821F059
:1002B000010101600021016041608160C160016154
:1002C000212141614A49884204D13D21484A103ADE
:1002D00091608CE046491831884205D14FF4746131
:1002E000434A103A916082E041493031884205D159
:1002F0004FF474113E4A103A916078E03C4948311D
:10030000884205D14FF07461394A103A91606EE02D
:1003100037496031884204D13649354A103AD160B4
:1003200065E033497831884204D13349304A103A84
:10033000D1605CE02E499031884204D12F492C4A8B
:10034000103AD16053E02A49A831884205D14FF0D4
:100350003D51274A103AD16049E02949884204D1E9
:100360003D21274A083A116041E025491831884269
:1003700005D14FF47461224A083A116037E02049F0
:100380003031884205D14FF474111D4A083A11608A
:100390002DE01B494831884205D14FF07461184A5D
:1003A000083A116023E016496031884204D11149AE
:1003B000134A121F11601AE011497831884204D1A2
:1003C0000D490F4A121F116011E00D49903188420A
:1003D00004D10A490A4A121F116008E00849A831ED
:1003E000884204D14FF03D51054A121F11607047F9
:1003F000106002403D000020400F002000003D2022
:100400001064024010B500220268134B1A40CC68F9
:100410000B6823434C6923438C692343CC692343F2
:100420000C6A23434C6A23438C6A23434C6B23435B
:100430008C6B23431A430260426922F00702D1E920
:100440000B3423431A4342610B6943604B6883605A
:100450008B68C36010BD00003F801CF07047F0B592
:100460000A4600210023002400BF3DE0012505FAD3
:1004700001F3156805EA03049C4234D105684F0076
:100480000326BE40B543056015794E00B5400668A9
:10049000354305601579012D02D01579022D16D14D
:1004A00085684F000326BE40B543856055794E00F0
:1004B000B540866835438560456801268E40B54362
:1004C0004560456896798E40B6B235434560C5684B
:1004D0004F000326BE40B543C560D5794E00B540F8
:1004E000C6683543C560491C1029BFD3F0BDF0B5BF
:1004F000002300244D07ED0E02FA05F3CE1000F1A3
:10050000200555F826504E07F70E0F26BE40B5437E
:10051000CF1000F1200646F82750CE1000F120053C
:1005200055F8265045EA0304CE1000F1200545F8A1
:100530002640F0BD00BFFEE700BFFEE770477047F2
:1005400029B1064A12680243044B1A6004E0034AC8
:1005500012688243014B1A60704700003038024035
:10056000704700000CB500200190009036480068EC
:1005700040F480303449086000BF3348006800F41C
:10058000003000900198401C0190009818B9019823
:10059000B0F5A04FF1D12C48006800F4003010B144
:1005A0000120009001E0002000900098012849D12E
:1005B00025484030006840F08050234940310860B1
:1005C0002248006840F44040204908601E48083036
:1005D00000681D4908310860084600680860084640
:1005E000006840F480500860194817498431086059
:1005F00018481549091D0860081F006840F0807000
:10060000091F086000BF1048006800F00070002853
:10061000F9D040F20270104908600B4808300068B9
:1006200020F003000849083108600846006840F0DF
:100630000200086000BF04480830006800F00C00A9
:100640000828F8D10CBD00000038024000700040BE
:100650000030002008544107003C02407047000071
:1006600010B51548006840F470001349086013483D
:10067000006840F001001149086000200F4908316E
:1006800008600E4800680E4908400C4908600D4893
:10069000091D0860081F006820F48020091F0860F9
:1006A000002006490C310860FFF75CFF4FF0006046
:1006B00001498039086010BD88ED00E00038024033
:1006C000FFFFF6FE1030002400BF0549097801F055
:1006D00080010029F9D0C0F30801014A5160704738
:1006E000001001401D48006840F001001B490860EF
:1006F0001A481430006840F010001849143108609E
:100700001748406A40F07000154948620846006882
:1007100040F4002008600846406820F4002048604B
:100720000846806840F4002088600846C06840F4AD
:100730008020C8600B48806840F2D92108430949ED
:1007400088600846C06842F20C0108430549C86049
:100750000846C06940F00100C86170473038024067
:10076000000002400010014000BFFEE70FB4054B3F
:1007700010B503A9044A029800F018F810BC5DF8FF
:1007800014FB00007D0C00081C00002002E008C8DB
:10079000121F08C1002AFAD170477047002001E0FB
:1007A00001C1121F002AFBD1704700002DE9FF4F45
:1007B0008DB00F460546002606E025280BD0DDE962
:1007C0000F1290476D1C761C28780028F5D111B0C7
:1007D0003046BDE8F08F0024A246A1460122EC4934
:1007E00000E0044315F8013F203B02FA03F0084201
:1007F000F7D128782A2810D06FF02F022878A0F19E
:100800003001092914D80AEB8A0102EB410144F0B6
:10081000020400EB010A6D1CF0E701CF5FEA000A59
:1008200003D544F40054CAF1000A44F002046D1CDC
:1008300028782E2817D115F8010F44F004042A282F
:100840000ED06FF02F022878A0F1300109290AD8C4
:1008500009EB890102EB410100EB01096D1CF2E794
:1008600057F8049B6D1C28786C280FD006DC4C28A8
:1008700017D068280DD06A2814D104E0742810D04D
:100880007A280FD10DE044F400140AE044F48014F7
:1008900001E044F440146978814202D104F58014E7
:1008A0006D1C6D1C2A786E2A1FD00CDC632A31D097
:1008B00004DC002A8BD0582A11D1A3E0642A68D026
:1008C000692A0CD165E0732A2ED004DC6F2A73D01C
:1008D000702A04D19BE0752A6FD0782A6ED010461A
:1008E000DDE90F129047761C50E1C4F30250022854
:1008F00006D0032809D0042801CF09D0066045E1BD
:1009000001CFF117C0E9006140E101CF06803DE170
:1009100006703BE117F8040B8DF8000000208DF8FD
:100920000100EB46012003E057F804BB4FF0FF3015
:1009300061074FF0000102D40DE008F10101884683
:1009400049450FDA8045F8DB1BF808100029F4D17F
:1009500008E008F1010188468142FADB1BF8081023
:100960000029F6D1DDE90F23AAEB080081462146D4
:1009700000F036F9304400EB080604E0DDE90F1220
:100980001BF8010B9047B8F10108F7D22146484601
:10099000F7E00A21C4F302534FF0000B0891022B39
:1009A00004D001CFC117032B09D00AE0FF1D27F0A7
:1009B0000707F7E8020108E032E01FE020E000B29C
:1009C000C117042B01D140B2C117031E71F10003FE
:1009D00007DA4FF0000CD0EB0C006CEB01012D237B
:1009E00002E0230504D52B238DF82430012303E0F6
:1009F000E30701D02023F7E7984658E00A2110E0EA
:100A000010210EE010204FF0000B08900CE0102198
:100A10004FF0000B44F004044FF00809089103E084
:100A200008214FF0000B0891C4F30253022B04D0AD
:100A300001CF0021032B06D006E0FF1D27F007079A
:100A4000F7E8020103E080B2042B00D1C0B24FF0FE
:100A5000000823072BD5702A07D0DDF820C08CF0C2
:100A6000100C5CEA0B0C05D00EE040238DF824300E
:100A7000012308E050EA010306D030238DF824302A
:100A80008DF8252002239846DDF820C08CF0080C54
:100A90005CEA0B0C0BD150EA010301D1630706D5C8
:100AA00030238DF824304FF00108A9F10109582AAC
:100AB00004D038A20B9208AA0A920BE03AA2F9E7F6
:100AC0005B46089AFFF782FB0B9B9B5C0A9A521EBF
:100AD0000A92137050EA0102F2D10A98ADEB0000BD
:100AE00000F1200B600702D524F4803401E04FF0C0
:100AF0000109D94502DDA9EB0B0000E0002000EB65
:100B00000B0141440890AAEB010AE00306D4DDE999
:100B10000F232146504600F063F806444FF00009C9
:100B200008E009A911F80900DDE90F12904709F161
:100B30000109761CC145F4DBE0030CD5DDE90F2388
:100B40002146504600F04CF8064404E0DDE90F125F
:100B500030209047761C0899481E08900029F5DC43
:100B600008E00A980A990078491C0A91DDE90F12F9
:100B70009047761CBBF10001ABF1010BF1DC214683
:100B80005046DDE90F2300F019F806446D1C1BE602
:100B90000928010030313233343536373839616253
:100BA0006364656600000000303132333435363717
:100BB0003839414243444546000000002DE9F041E8
:100BC000044600251E461746880404D405E039462D
:100BD0002020B0476D1C641EF9D52846BDE8F08181
:100BE0002DE9F041044600251E469046C80301D574
:100BF000302700E02027880404D505E04146384628
:100C0000B0476D1C641EF9D52846BDE8F081000090
:100C100000B58FB001214805FFF792FC1448FFF79B
:100C200045FB00200090134801901348029040209B
:100C300003900A200490002005904FF480600690F5
:100C4000400007900890C010099040020A900020D0
:100C50000B9001200C9000200D900E9069460448E6
:100C6000FFF7D0FB01210248FFF715FB0FB000BDD5
:100C7000B86002400C3C00400800002010B503465C
:100C80000C46D8B2FFF720FD10BD00001CB5FFF7E1
:100C900029FD3FA0FFF76AFD4248006840F00700C9
:100CA000404908603F483038006840F080603D4966
:100CB00030390860062204213B48FFF718FC062261
:100CC00003213A48FFF713FC062205213748FFF7B6
:100CD0000EFC02208DF8040000208DF80600022092
:100CE0008DF807001020009069462F48FFF7B7FBEA
:100CF0002820009069462D48FFF7B1FB29481030A5
:100D0000006840F400402749103108602848006816
:100D1000808B20F48060264909688883002024495C
:100D20000968888322480068808B40F4006020496D
:100D3000096888831E480068808B40F400701C4955
:100D40000968888300201A490968088418480068DF
:100D5000008C40F027001649096808841448006890
:100D6000008C40F4807012490968088410480068BB
:100D7000808B40F480600E49096888830D480088A4
:100D800040F002000B490880FFF742FF00BFFEE77A
:100D90006932733320747820646D612074657374D4
:100DA0000D0A0000303802400000024000040240FA
:100DB00004000020043C0040D80D00080000002082
:100DC000200000008C070008F80D0008200000201B
:100DD000001000009C07000800380040003C004064
:100DE000110022003300440055006600770088009F
:080DF0009900AA0000000000B8
:040000050800019559
:00000001FF
