:020000040800F2
:1000000030100020A9010008770300086F030008E2
:1000100073030008930200081107000800000000A5
:1000200000000000000000000000000019050008AA
:100030009702000800000000F10300080506000810
:10004000C3010008C3010008C3010008C301000880
:10005000C3010008C3010008C3010008C301000870
:10006000C3010008C3010008C3010008C301000860
:10007000C3010008C3010008C3010008C301000850
:10008000C3010008C3010008C3010008000000000C
:10009000000000000000000000000000C301000894
:1000A000C3010008C3010008C3010008C301000820
:1000B000C3010008C3010008C3010008C301000810
:1000C000C3010008C3010008C3010008C301000800
:1000D000C3010008C3010008C301000800000000BC
:1000E000C3010008C3010008C301000800000000AC
:1000F000000000000000000000000000C301000834
:1001000000000000C3010008C3010008C30100088B
:1001100000000000000000000000000000000000DF
:10012000C3010008C3010008C3010008C30100089F
:10013000C3010008000000000000000000000000F3
:10014000000000000000000000000000C3010008E3
:10015000C3010008C3010008C3010008C30100086F
:10016000C3010008C30100080000000000000000F7
:10017000000000000000000000000000000000007F
:1001800000000000C30100080000000000000000A3
:10019000F5030008DFF80CD000F04AF800480047EB
:1001A000C50B00083010002006488047064800476D
:1001B000FEE7FEE7FEE7FEE7FEE7FEE7FEE7FEE717
:1001C000FEE7FEE709060008950100082DE9F05F4B
:1001D0000546002092469B468846064681464024B6
:1001E0001BE0284641464746224600F042F8534667
:1001F0005A46C01A914110D311461846224600F0C3
:1002000029F82D1A67EB01084F46224601200021EC
:1002100000F020F817EB00094E41201EA4F1010464
:10022000DFDC484631462A464346BDE8F09F0000E1
:10023000064C074D06E0E06840F0010394E8070033
:1002400098471034AC42F6D3FFF7A8FF200C000803
:10025000400C0008202A04DB203A00FA02F10020BA
:1002600070479140C2F1200320FA03F319439040F4
:100270007047202A04DB203A21FA02F0002170475F
:1002800021FA02F3D040C2F12002914008431946FE
:10029000704700BFFEE77047F0B50A460021002313
:1002A000002400BF3DE0012505FA01F3156805EAC9
:1002B00003049C4234D105684F000326BE40B54379
:1002C000056015794E00B54006683543056015791F
:1002D000012D02D01579022D16D185684F00032615
:1002E000BE40B543856055794E00B54086683543BC
:1002F0008560456801268E40B5434560456896791E
:100300008E40B6B235434560C5684F000326BE40F7
:10031000B543C560D5794E00B540C6683543C56064
:10032000491C1029BFD3F0BDF0B5002300244D07B0
:10033000ED0E02FA05F3CE1000F1200555F8265017
:100340004E07F70E0F26BE40B543CF1000F1200632
:1003500046F82750CE1000F1200555F8265045EA02
:100360000304CE1000F1200545F82640F0BD00BF83
:10037000FEE700BFFEE7704770B5002100230F22A3
:10038000C4781CB3174C246804F4E064C4F5E0643A
:10039000C4F30721C1F10404E3B20A4144789C404C
:1003A000E1B28478144021430C07210E0E4C0578ED
:1003B0006155047804F01F050124AC4005786D11E7
:1003C000AD0005F1E025C5F8004109E0047804F02E
:1003D0001F050124AC40054D0678761145F82640EE
:1003E00070BD00000CED00E000E400E080E100E002
:1003F0007047000010B560210A4800F073F801282A
:100400000FD108480C300188074802680068401C7A
:10041000054B1860054840F822106021014800F0A3
:1004200057F810BD003401400000002008000020F3
:100430000EB52448006840F01000224908602148A9
:100440001430006840F400501E49143108604FF425
:10045000F040019002208DF808008DF8090000207E
:100460008DF80A0001208DF80B0001A91648FFF74E
:1004700013FF05220B211448FFF756FF05220C211C
:100480001148FFF751FF05220D210F48FFF74CFFE0
:1004900005220E210C48FFF747FF54208DF800007D
:1004A00001208DF803006846FFF766FF07480088C3
:1004B00040F04000054908804FF41E70091F088075
:1004C0000EBD0000303802400010024004340140EC
:1004D00010B5002201F00F040123A3409AB2D343C8
:1004E000038110BDF0B50246002000240023002542
:1004F00001F00F070126BE40B4B20B1101269E4049
:10050000B3B2968806EA03051689264016B10DB1E6
:10051000012000E00020F0BD704700000CB5002075
:10052000019000903348006840F480303149086001
:1005300000BF3048006800F4003000900198401C73
:100540000190009818B90198B0F5A04FF1D1294851
:10055000006800F4003010B10120009001E000209C
:1005600000900098012844D122484030006840F0B3
:1005700080502049403108601F48006840F44040E6
:100580001D4908601B48083000681A490831086096
:100590000846006808600846006840F4805008601B
:1005A0001648091F0860081F006840F08070091F86
:1005B000086000BF0F48006800F000700028F9D004
:1005C00040F202700E4908600A480830006820F0C6
:1005D00003000849083108600846006840F002003E
:1005E000086000BF03480830006800F00C000828CD
:1005F000F8D10CBD0038024000700040085441079B
:10060000003C02407047000010B51548006840F4F7
:100610007000134908601348006840F00100114958
:10062000086000200F49083108600E4800680E4934
:1006300008400C4908600D48091D0860081F006843
:1006400020F48020091F0860002006490C31086052
:10065000FFF764FF4FF0006001498039086010BD6A
:1006600088ED00E000380240FFFFF6FE1030002465
:1006700000BF0549097801F080010029F9D0C0F3D5
:100680000801014A51607047001001401D48006890
:1006900040F001001B4908601A481430006840F01F
:1006A00010001849143108601748406A40F0700083
:1006B000154948620846006840F400200860084672
:1006C000406820F4002048600846806840F400201C
:1006D00088600846C06840F48020C8600B48806885
:1006E00040F2D9210843094988600846C06842F2AF
:1006F0000C0108430549C8600846C06940F0010084
:10070000C8617047303802400000024000100140CC
:1007100000BFFEE70FB4054B10B503A9044A0298C9
:1007200000F018F810BC5DF814FB0000B70B0008CF
:100730000400002002E008C8121F08C1002AFAD1F4
:1007400070477047002001E001C1121F002AFBD151
:10075000704700002DE9FF4F8DB00F46054600267B
:1007600006E025280BD0DDE90F1290476D1C761CA2
:1007700028780028F5D111B03046BDE8F08F00246C
:10078000A246A1460122EC4900E0044315F8013FCE
:10079000203B02FA03F00842F7D128782A2810D02B
:1007A0006FF02F022878A0F13001092914D80AEB44
:1007B0008A0102EB410144F0020400EB010A6D1CC6
:1007C000F0E701CF5FEA000A03D544F40054CAF110
:1007D000000A44F002046D1C28782E2817D115F861
:1007E000010F44F004042A280ED06FF02F0228785D
:1007F000A0F1300109290AD809EB890102EB410176
:1008000000EB01096D1CF2E757F8049B6D1C28787A
:100810006C280FD006DC4C2817D068280DD06A2829
:1008200014D104E0742810D07A280FD10DE044F4DC
:1008300000140AE044F4801401E044F440146978A0
:10084000814202D104F580146D1C6D1C2A786E2A39
:100850001FD00CDC632A31D004DC002A8BD0582A4C
:1008600011D1A3E0642A68D0692A0CD165E0732A0B
:100870002ED004DC6F2A73D0702A04D19BE0752A35
:100880006FD0782A6ED01046DDE90F129047761CA3
:1008900050E1C4F30250022806D0032809D00428EE
:1008A00001CF09D0066045E101CFF117C0E9006131
:1008B00040E101CF06803DE106703BE117F8040BF3
:1008C0008DF8000000208DF80100EB46012003E0C8
:1008D00057F804BB4FF0FF3061074FF0000102D41E
:1008E0000DE008F10101884649450FDA8045F8DB43
:1008F0001BF808100029F4D108E008F1010188462E
:100900008142FADB1BF808100029F6D1DDE90F233C
:10091000AAEB08008146214600F036F9304400EB8E
:10092000080604E0DDE90F121BF8010B9047B8F14F
:100930000108F7D221464846F7E00A21C4F30253E2
:100940004FF0000B0891022B04D001CFC117032BED
:1009500009D00AE0FF1D27F00707F7E8020108E0C9
:1009600032E01FE020E000B2C117042B01D140B2F9
:10097000C117031E71F1000307DA4FF0000CD0EB32
:100980000C006CEB01012D2302E0230504D52B2381
:100990008DF82430012303E0E30701D02023F7E79B
:1009A000984658E00A2110E010210EE010204FF088
:1009B000000B08900CE010214FF0000B44F00404F1
:1009C0004FF00809089103E008214FF0000B08914F
:1009D000C4F30253022B04D001CF0021032B06D015
:1009E00006E0FF1D27F00707F7E8020103E080B2E9
:1009F000042B00D1C0B24FF0000823072BD5702A7A
:100A000007D0DDF820C08CF0100C5CEA0B0C05D090
:100A10000EE040238DF82430012308E050EA010362
:100A200006D030238DF824308DF8252002239846F7
:100A3000DDF820C08CF0080C5CEA0B0C0BD150EAFE
:100A4000010301D1630706D530238DF824304FF020
:100A50000108A9F10109582A04D038A20B9208AA6A
:100A60000A920BE03AA2F9E75B46089AFFF7AEFB61
:100A70000B9B9B5C0A9A521E0A92137050EA010269
:100A8000F2D10A98ADEB000000F1200B600702D50F
:100A900024F4803401E04FF00109D94502DDA9EBCF
:100AA0000B0000E0002000EB0B0141440890AAEB92
:100AB000010AE00306D4DDE90F232146504600F089
:100AC00063F806444FF0000908E009A911F809008D
:100AD000DDE90F12904709F10109761CC145F4DBED
:100AE000E0030CD5DDE90F232146504600F04CF819
:100AF000064404E0DDE90F1230209047761C089987
:100B0000481E08900029F5DC08E00A980A99007848
:100B1000491C0A91DDE90F129047761CBBF10001D8
:100B2000ABF1010BF1DC21465046DDE90F2300F06B
:100B300019F806446D1C1BE60928010030313233D8
:100B40003435363738396162636465660000000009
:100B500030313233343536373839414243444546F3
:100B6000000000002DE9F041044600251E4617460E
:100B7000880404D405E039462020B0476D1C641E6B
:100B8000F9D52846BDE8F0812DE9F041044600255D
:100B90001E469046C80301D5302700E02027880470
:100BA00004D505E041463846B0476D1C641EF9D5B2
:100BB0002846BDE8F08110B503460C46D8B2FFF7D1
:100BC00057FD10BDFFF762FD0BA0FFF7A3FDFFF778
:100BD0002FFC00BF0D4800680A28FBDB002406E05C
:100BE0000B4850F824100BA0FFF794FD641C0A2C4E
:100BF000F6DB00BFFEE7000063686970323A746597
:100C000073742073746172740D0A00000000002078
:100C1000080000203078253038780D0A00000000E8
:100C2000400C000800000020080000003407000805
:100C3000480C0008080000202810000044070008A5
:080C40000000000000000000AC
:040000050800019559
:00000001FF
