:020000040800F2
:1000000070050020A9010008A10800089902000855
:100010009D08000893020008710B00080000000012
:100020000000000000000000000000007B09000844
:100030009702000800000000F1080008650A0008A7
:10004000C3010008C3010008C3010008C301000880
:10005000C3010008C3010008C3010008C301000870
:10006000C3010008C3010008C3010008C301000860
:10007000C3010008C3010008C3010008C301000850
:10008000C3010008C3010008C3010008000000000C
:10009000000000000000000000000000C301000894
:1000A000C3010008C3010008C3010008C301000820
:1000B000C3010008C3010008C3010008C301000810
:1000C000C3010008C3010008C3010008C301000800
:1000D000C3010008C3010008C301000800000000BC
:1000E000C3010008C3010008C301000800000000AC
:1000F000000000000000000000000000C301000834
:1001000000000000C3010008C3010008C30100088B
:1001100000000000000000000000000000000000DF
:10012000C3010008C3010008C3010008C30100089F
:10013000C3010008000000000000000000000000F3
:10014000000000000000000000000000C3010008E3
:10015000C3010008C3010008C3010008C30100086F
:10016000C3010008C30100080000000000000000F7
:10017000000000000000000000000000000000007F
:1001800000000000C30100080000000000000000A3
:10019000C3010008DFF80CD000F04AF8004800471F
:1001A0002D100008700500200648804706480047CB
:1001B000FEE7FEE7FEE7FEE7FEE7FEE7FEE7FEE717
:1001C000FEE7FEE7690A0008950100082DE9F05FE7
:1001D0000546002092469B468846064681464024B6
:1001E0001BE0284641464746224600F042F8534667
:1001F0005A46C01A914110D311461846224600F0C3
:1002000029F82D1A67EB01084F46224601200021EC
:1002100000F020F817EB00094E41201EA4F1010464
:10022000DFDC484631462A464346BDE8F09F0000E1
:10023000064C074D06E0E06840F0010394E8070033
:1002400098471034AC42F6D3FFF7A8FFE812000835
:1002500008130008202A04DB203A00FA02F10020EB
:1002600070479140C2F1200320FA03F319439040F4
:100270007047202A04DB203A21FA02F0002170475F
:1002800021FA02F3D040C2F12002914008431946FE
:10029000704700BFFEE7704700BFFEE710B50020C3
:1002A0000EE0002109E0002200EBC003064C04EB45
:1002B000830353F821301A60491C0929F3DB401CE1
:1002C0000228EEDB10BD0000000000202DE9FC41FB
:1002D0000026002452E000254DE004EBC400314923
:1002E00001EB800050F82500076804EBC4002E499C
:1002F00001EB800050F82500B8422DD004EBC4007B
:1003000001EB800050F8250004EBC401254A02EB04
:10031000810151F825100968CDE9001004EBC400F3
:10032000214B03EB800050F8250004EBC4039446F6
:100330000CEB830353F825301B6880EA030204EBBF
:10034000C400634603EB800050F825103B46174875
:1003500000F010FC761C0DE004EBC400114A02EB27
:10036000800050F825103A4611A000F003FC19A0B7
:1003700000F000FC6D1C092DAFDB641C022CAADB15
:1003800036B915A000F0F6FB12A000F0F3FB06E072
:10039000314619A000F0EEFB0EA000F0EBFBBDE82B
:1003A000FC8100000000002024010020081100084A
:1003B000203078253038782074657374207061732C
:1003C000732C56414C45203D203078253038780D2F
:1003D0000A0000000D0A0000494953205772697451
:1003E000652030783030303030303030205041535C
:1003F000530D0D0A000000004949532057726974DB
:100400006520307830303030303030302025642076
:10041000524547204552520D0D0A000010B50020EC
:100420000FE000210AE04FF05A3200EBC003064C07
:1004300004EB830353F821301A60491C0929F2DBCD
:10044000401C0228EDDB10BD000000202DE9FC411E
:100450000026002452E000254DE004EBC4003149A1
:1004600001EB800050F82500076804EBC4002E491A
:1004700001EB800050F82500B8422DD004EBC400F9
:1004800001EB800050F8250004EBC401254A02EB83
:10049000810151F825100968CDE9001004EBC40072
:1004A000214B03EB800050F8250004EBC403944675
:1004B0000CEB830353F825301B6880EA030204EB3E
:1004C000C400634603EB800050F825103B461748F4
:1004D00000F050FB761C0DE004EBC400114A02EB67
:1004E000800050F825103A4611A000F043FB19A0F7
:1004F00000F040FB6D1C092DAFDB641C022CAADB55
:1005000036B915A000F036FB12A000F033FB06E070
:10051000314619A000F02EFB0EA000F02BFBBDE829
:10052000FC81000000000020D8000020F811000825
:1005300020307825303878207465737420706173AA
:10054000732C56414C45203D203078253038780DAD
:100550000A0000000D0A00004949532057726974CF
:100560006520307835413541354135412050415382
:10057000530D0D0A00000000494953205772697459
:10058000652030783541354135413541202564209D
:10059000524547204552520D0D0A000010B500206B
:1005A0000FE000210AE04FF0A53200EBC003064C3B
:1005B00004EB830353F821301A60491C0929F2DB4C
:1005C000401C0228EDDB10BD000000202DE9FC419D
:1005D0000026002452E000254DE004EBC400314920
:1005E00001EB800050F82500076804EBC4002E4999
:1005F00001EB800050F82500B8422DD004EBC40078
:1006000001EB800050F8250004EBC401254A02EB01
:10061000810151F825100968CDE9001004EBC400F0
:10062000214B03EB800050F8250004EBC4039446F3
:100630000CEB830353F825301B6880EA030204EBBC
:10064000C400634603EB800050F825103B46174872
:1006500000F090FA761C0DE004EBC400114A02EBA6
:10066000800050F825103A4611A000F083FA19A036
:1006700000F080FA6D1C092DAFDB641C022CAADB94
:1006800036B915A000F076FA12A000F073FA06E071
:10069000314619A000F06EFA0EA000F06BFABDE82A
:1006A000FC81000000000020900000208011000864
:1006B0002030782530387820746573742070617329
:1006C000732C56414C45203D203078253038780D2C
:1006D0000A0000000D0A000049495320577269744E
:1006E0006520307841354135413541352050415301
:1006F000530D0D0A000000004949532057726974D8
:10070000652030784135413541354135202564201B
:10071000524547204552520D0D0A000010B50020E9
:100720000FE000210AE04FF0FF3200EBC003064C5F
:1007300004EB830353F821301A60491C0929F2DBCA
:10074000401C0228EDDB10BD000000202DE9FC411B
:100750000026002452E000254DE004EBC40031499E
:1007600001EB800050F82500076804EBC4002E4917
:1007700001EB800050F82500B8422DD004EBC400F6
:1007800001EB800050F8250004EBC401254A02EB80
:10079000810151F825100968CDE9001004EBC4006F
:1007A000214B03EB800050F8250004EBC403944672
:1007B0000CEB830353F825301B6880EA030204EB3B
:1007C000C400634603EB800050F825103B461748F1
:1007D00000F0D0F9761C0DE004EBC400114A02EBE6
:1007E000800050F825103A4611A000F0C3F919A076
:1007F00000F0C0F96D1C092DAFDB641C022CAADBD4
:1008000036B915A000F0B6F912A000F0B3F906E071
:10081000314619A000F0AEF90EA000F0ABF9BDE82A
:10082000FC81000000000020480000207012000839
:1008300020307825303878207465737420706173A7
:10084000732C56414C45203D203078253038780DAA
:100850000A0000000D0A00004949532057726974CC
:100860006520307846464646464646462050415327
:10087000530D0D0A00000000494953205772697456
:100880006520307846464646464646462025642042
:10089000524547204552520D0D0A000000BFFEE7A9
:1008A0007047000000BF00BF00BFBFF34F8F00BF05
:1008B00000BF00BF0948006800F4E0600849084331
:1008C000001D0649086000BF00BF00BFBFF34F8F87
:1008D00000BF00BF00BF00E000BFFDE70CED00E07F
:1008E0000000FA05014908627047000000000E424E
:1008F0007047000029B1064A12680243044B1A608F
:1009000004E0034A12688243014B1A6070470000FA
:10091000403802400021094A11701170012802D0AC
:10092000042808D103E00121044A117004E00521E4
:10093000024A117000E000BF00BF704770380240EB
:1009400018B1FF21044A116004E0CA21024A116073
:1009500053211160704700002428004010B5012188
:100960000807FFF7C7FF0120FFF7BCFF0120FFF7D3
:10097000E7FF0120FFF7CEFF10BD70470CB5002048
:10098000019000903348006840F48030314908609D
:1009900000BF3048006800F4003000900198401C0F
:1009A0000190009818B90198B0F5A04FF1D12948ED
:1009B000006800F4003010B10120009001E0002038
:1009C00000900098012844D122484030006840F04F
:1009D00080502049403108601F48006840F4404082
:1009E0001D4908601B48083000681A490831086032
:1009F0000846006808600846006840F480500860B7
:100A00001648091F0860081F006840F08070091F21
:100A1000086000BF0F48006800F000700028F9D09F
:100A200040F202700E4908600A480830006820F061
:100A300003000849083108600846006840F00200D9
:100A4000086000BF03480830006800F00C00082868
:100A5000F8D10CBD00380240007000400854410736
:100A6000003C02407047000010B51548006840F493
:100A70007000134908601348006840F001001149F4
:100A8000086000200F49083108600E4800680E49D0
:100A900008400C4908600D48091D0860081F0068DF
:100AA00020F48020091F0860002006490C310860EE
:100AB000FFF764FF4FF0006001498039086010BD06
:100AC00088ED00E000380240FFFFF6FE1030002401
:100AD00000BF0549097801F080010029F9D0C0F371
:100AE0000801014A51607047001001401D4800682C
:100AF00040F001001B4908601A481430006840F0BB
:100B000010001849143108601748406A40F070001E
:100B1000154948620846006840F40020086008460D
:100B2000406820F4002048600846806840F40020B7
:100B300088600846C06840F48020C8600B48806820
:100B400040F2D9210843094988600846C06842F24A
:100B50000C0108430549C8600846C06940F001001F
:100B6000C861704730380240000002400010014068
:100B700000BFFEE70FB4054B10B503A9044A029865
:100B800000F01CF810BC5DF814FB00001F100008FA
:100B90002001002002E008C8121F08C1002AFAD173
:100BA00070477047002001E001C1121F002AFBD1ED
:100BB000704700F0010181F3138870472DE9FF4F62
:100BC0008DB00F460546002606E025280BD0DDE94E
:100BD0000F1290476D1C761C28780028F5D111B0B3
:100BE0003046BDE8F08F0024A246A1460122EC4920
:100BF00000E0044315F8013F203B02FA03F00842ED
:100C0000F7D128782A2810D06FF02F022878A0F189
:100C10003001092914D80AEB8A0102EB410144F0A2
:100C2000020400EB010A6D1CF0E701CF5FEA000A45
:100C300003D544F40054CAF1000A44F002046D1CC8
:100C400028782E2817D115F8010F44F004042A281B
:100C50000ED06FF02F022878A0F1300109290AD8B0
:100C600009EB890102EB410100EB01096D1CF2E780
:100C700057F8049B6D1C28786C280FD006DC4C2894
:100C800017D068280DD06A2814D104E0742810D039
:100C90007A280FD10DE044F400140AE044F48014E3
:100CA00001E044F440146978814202D104F58014D3
:100CB0006D1C6D1C2A786E2A1FD00CDC632A31D083
:100CC00004DC002A8BD0582A11D1A3E0642A68D012
:100CD000692A0CD165E0732A2ED004DC6F2A73D008
:100CE000702A04D19BE0752A6FD0782A6ED0104606
:100CF000DDE90F129047761C50E1C4F30250022840
:100D000006D0032809D0042801CF09D0066045E1A8
:100D100001CFF117C0E9006140E101CF06803DE15C
:100D200006703BE117F8040B8DF8000000208DF8E9
:100D30000100EB46012003E057F804BB4FF0FF3001
:100D400061074FF0000102D40DE008F1010188466F
:100D500049450FDA8045F8DB1BF808100029F4D16B
:100D600008E008F1010188468142FADB1BF808100F
:100D70000029F6D1DDE90F23AAEB080081462146C0
:100D800000F036F9304400EB080604E0DDE90F120C
:100D90001BF8010B9047B8F10108F7D221464846ED
:100DA000F7E00A21C4F302534FF0000B0891022B25
:100DB00004D001CFC117032B09D00AE0FF1D27F093
:100DC0000707F7E8020108E032E01FE020E000B288
:100DD000C117042B01D140B2C117031E71F10003EA
:100DE00007DA4FF0000CD0EB0C006CEB01012D2367
:100DF00002E0230504D52B238DF82430012303E0E2
:100E0000E30701D02023F7E7984658E00A2110E0D5
:100E100010210EE010204FF0000B08900CE0102184
:100E20004FF0000B44F004044FF00809089103E070
:100E300008214FF0000B0891C4F30253022B04D099
:100E400001CF0021032B06D006E0FF1D27F0070786
:100E5000F7E8020103E080B2042B00D1C0B24FF0EA
:100E6000000823072BD5702A07D0DDF820C08CF0AE
:100E7000100C5CEA0B0C05D00EE040238DF82430FA
:100E8000012308E050EA010306D030238DF8243016
:100E90008DF8252002239846DDF820C08CF0080C40
:100EA0005CEA0B0C0BD150EA010301D1630706D5B4
:100EB00030238DF824304FF00108A9F10109582A98
:100EC00004D038A20B9208AA0A920BE03AA2F9E7E2
:100ED0005B46089AFFF77AF90B9B9B5C0A9A521EB5
:100EE0000A92137050EA0102F2D10A98ADEB0000A9
:100EF00000F1200B600702D524F4803401E04FF0AC
:100F00000109D94502DDA9EB0B0000E0002000EB50
:100F10000B0141440890AAEB010AE00306D4DDE985
:100F20000F232146504600F063F806444FF00009B5
:100F300008E009A911F80900DDE90F12904709F14D
:100F40000109761CC145F4DBE0030CD5DDE90F2374
:100F50002146504600F04CF8064404E0DDE90F124B
:100F600030209047761C0899481E08900029F5DC2F
:100F700008E00A980A990078491C0A91DDE90F12E5
:100F80009047761CBBF10001ABF1010BF1DC21466F
:100F90005046DDE90F2300F019F806446D1C1BE6EE
:100FA000092801003031323334353637383961623F
:100FB0006364656600000000303132333435363703
:100FC0003839414243444546000000002DE9F041D4
:100FD000044600251E461746880404D405E0394619
:100FE0002020B0476D1C641EF9D52846BDE8F0816D
:100FF0002DE9F041044600251E469046C80301D560
:10100000302700E02027880404D505E04146384613
:10101000B0476D1C641EF9D52846BDE8F08110B5B7
:1010200003460C46D8B2FFF753FD10BDFFF75EFD37
:101030002FA0FFF79FFD3248006840F480503049F0
:101040000860081F006840F44040091F0860FFF76F
:1010500085FC2C480068012805D100202949091F7A
:101060000860091D08602748001F006830B101288A
:1010700010D002281BD0032833D125E0FFF74EFB08
:10108000FFF764FB01201F49091F0860FFF791FD6E
:10109000FFF708FCFFF702F9FFF718F902201949DA
:1010A000091F08600120FFF784FDFFF7FBFBFFF736
:1010B00075FAFFF78BFA03201249091F0860012017
:1010C000FFF777FDFFF7EEFBFFF7A8F9FFF7BEF993
:1010D00004200C49091F08600120FFF76AFDFFF793
:1010E000E1FB00BF00BF02E0012006490860FBE70A
:1010F000544558542053544152540D0A00000000E6
:101100004438024054280040203078253038782078
:1011100030783030303030303030204552522C452D
:1011200052522044415441203A20307825303878BA
:101130000D0A5245475F56414C455F46495253544C
:10114000203D203078253038780D0A5245475F56CB
:10115000414C455F5345434F4E44203D2030782558
:101160003038780D0A45787065637465642076615F
:101170006C7565203D20203078253038780D0A00C8
:101180002030782530387820307841354135413568
:101190004135204552522C45525220444154412061
:1011A0003A203078253038780D0A5245475F56414D
:1011B0004C455F4649525354203D20307825303805
:1011C000780D0A5245475F56414C455F5345434FA2
:1011D0004E44203D203078253038780D0A4578700F
:1011E00065637465642076616C7565203D202030F0
:1011F00078253038780D0A0020307825303878206E
:1012000030783541354135413541204552522C45E4
:1012100052522044415441203A20307825303878C9
:101220000D0A5245475F56414C455F46495253545B
:10123000203D203078253038780D0A5245475F56DA
:10124000414C455F5345434F4E44203D2030782567
:101250003038780D0A45787065637465642076616E
:101260006C7565203D20203078253038780D0A00D7
:101270002030782530387820307846464646464635
:101280004646204552522C4552522044415441205A
:101290003A203078253038780D0A5245475F56415C
:1012A0004C455F4649525354203D20307825303814
:1012B000780D0A5245475F56414C455F5345434FB1
:1012C0004E44203D203078253038780D0A4578701E
:1012D00065637465642076616C7565203D202030FF
:1012E00078253038780D0A00081300080000002027
:1012F00024010000940B00082C1400082401002095
:101300004C040000A40B00080834004000340040E6
:10131000043400400C3400401034004014340040C9
:10132000183400401C340040203400400840004085
:1013300000400040044000400C400040104000408D
:1013400014400040184000401C4000402040004035
:1013500080000000FFFF0000F70000000000000018
:10136000FFFF00000000000000000000BF0F0000B1
:10137000FF03000080000000FFFF0000F7000000F6
:1013800000000000FFFF000000000000000000005F
:10139000BF0F0000FF03000000000000A5A5000033
:1013A000A500000000000000A5A50000000000004E
:1013B00000000000A5050000A501000000000000DD
:1013C000A5A50000A500000000000000A5A50000E4
:1013D0000000000000000000A5050000A5010000BD
:1013E000800000005A5A0000520000000000000077
:1013F0005A5A000000000000000000001A0A000015
:101400005A020000800000005A5A000052000000FA
:10141000000000005A5A0000000000000000000018
:0C1420001A0A00005A0200000000000040
:040000050800019559
:00000001FF
